{
  "_format": "hh-sol-artifact-1",
  "contractName": "Lock",
  "sourceName": "contracts/Lock.sol",
  "abi": [
    {
      "inputs": [],
      "stateMutability": "nonpayable",
      "type": "constructor"
    },
    {
      "anonymous": false,
      "inputs": [
        {
          "indexed": true,
          "internalType": "address",
          "name": "oldLicensor",
          "type": "address"
        },
        {
          "indexed": true,
          "internalType": "address",
          "name": "newLicensor",
          "type": "address"
        }
      ],
      "name": "LicensorUpdated",
      "type": "event"
    },
    {
      "anonymous": false,
      "inputs": [
        {
          "indexed": false,
          "internalType": "uint256",
          "name": "fee",
          "type": "uint256"
        },
        {
          "indexed": false,
          "internalType": "uint256",
          "name": "daysToAccess",
          "type": "uint256"
        },
        {
          "indexed": false,
          "internalType": "string",
          "name": "musicalWork",
          "type": "string"
        }
      ],
      "name": "MusicDetailsEvent",
      "type": "event"
    },
    {
      "anonymous": false,
      "inputs": [
        {
          "indexed": true,
          "internalType": "address",
          "name": "from",
          "type": "address"
        },
        {
          "indexed": false,
          "internalType": "uint256",
          "name": "amount",
          "type": "uint256"
        }
      ],
      "name": "PaymentReceived",
      "type": "event"
    },
    {
      "inputs": [
        {
          "internalType": "uint256",
          "name": "_fee",
          "type": "uint256"
        },
        {
          "internalType": "uint256",
          "name": "_daysToAccess",
          "type": "uint256"
        },
        {
          "internalType": "string",
          "name": "_musicalWork",
          "type": "string"
        }
      ],
      "name": "emitMusicDetails",
      "outputs": [],
      "stateMutability": "nonpayable",
      "type": "function"
    },
    {
      "inputs": [],
      "name": "getBalance",
      "outputs": [
        {
          "internalType": "uint256",
          "name": "",
          "type": "uint256"
        }
      ],
      "stateMutability": "view",
      "type": "function"
    },
    {
      "inputs": [],
      "name": "licensor",
      "outputs": [
        {
          "internalType": "address",
          "name": "",
          "type": "address"
        }
      ],
      "stateMutability": "view",
      "type": "function"
    },
    {
      "inputs": [],
      "name": "receivePayment",
      "outputs": [],
      "stateMutability": "payable",
      "type": "function"
    },
    {
      "inputs": [
        {
          "internalType": "address",
          "name": "newLicensor",
          "type": "address"
        }
      ],
      "name": "updateLicensor",
      "outputs": [],
      "stateMutability": "nonpayable",
      "type": "function"
    }
  ],
  "bytecode": "0x608060405234801561001057600080fd5b50336000806101000a81548173ffffffffffffffffffffffffffffffffffffffff021916908373ffffffffffffffffffffffffffffffffffffffff1602179055506109a7806100606000396000f3fe60806040526004361061004a5760003560e01c80630144f9891461004f57806312065fe01461007a5780632cbf952d146100a5578063835c19f3146100ce578063b5d0a537146100d8575b600080fd5b34801561005b57600080fd5b50610064610101565b60405161007191906104ad565b60405180910390f35b34801561008657600080fd5b5061008f610125565b60405161009c91906104e1565b60405180910390f35b3480156100b157600080fd5b506100cc60048036038101906100c7919061053c565b61012d565b005b6100d66102e7565b005b3480156100e457600080fd5b506100ff60048036038101906100fa91906106db565b61042c565b005b60008054906101000a900473ffffffffffffffffffffffffffffffffffffffff1681565b600047905090565b60008054906101000a900473ffffffffffffffffffffffffffffffffffffffff1673ffffffffffffffffffffffffffffffffffffffff163373ffffffffffffffffffffffffffffffffffffffff16146101bb576040517f08c379a00000000000000000000000000000000000000000000000000000000081526004016101b2906107cd565b60405180910390fd5b600073ffffffffffffffffffffffffffffffffffffffff168173ffffffffffffffffffffffffffffffffffffffff160361022a576040517f08c379a000000000000000000000000000000000000000000000000000000000815260040161022190610839565b60405180910390fd5b8073ffffffffffffffffffffffffffffffffffffffff1660008054906101000a900473ffffffffffffffffffffffffffffffffffffffff1673ffffffffffffffffffffffffffffffffffffffff167f58142f7e042e6f7e7e770f935a1df39694bb8ea41f279cbe2a02020b87504b5660405160405180910390a3806000806101000a81548173ffffffffffffffffffffffffffffffffffffffff021916908373ffffffffffffffffffffffffffffffffffffffff16021790555050565b60008054906101000a900473ffffffffffffffffffffffffffffffffffffffff1673ffffffffffffffffffffffffffffffffffffffff163373ffffffffffffffffffffffffffffffffffffffff1603610375576040517f08c379a000000000000000000000000000000000000000000000000000000000815260040161036c906108a5565b60405180910390fd5b3373ffffffffffffffffffffffffffffffffffffffff167f6ef95f06320e7a25a04a175ca677b7052bdd97131872c2192525a629f51be770346040516103bb91906104e1565b60405180910390a260008054906101000a900473ffffffffffffffffffffffffffffffffffffffff1673ffffffffffffffffffffffffffffffffffffffff166108fc349081150290604051600060405180830381858888f19350505050158015610429573d6000803e3d6000fd5b50565b7f6b0f7fedfa848b7c0c37f3e6eb0bf295c4d61e551d8549e3b492c083dad2424783838360405161045f93929190610933565b60405180910390a1505050565b600073ffffffffffffffffffffffffffffffffffffffff82169050919050565b60006104978261046c565b9050919050565b6104a78161048c565b82525050565b60006020820190506104c2600083018461049e565b92915050565b6000819050919050565b6104db816104c8565b82525050565b60006020820190506104f660008301846104d2565b92915050565b6000604051905090565b600080fd5b600080fd5b6105198161048c565b811461052457600080fd5b50565b60008135905061053681610510565b92915050565b60006020828403121561055257610551610506565b5b600061056084828501610527565b91505092915050565b610572816104c8565b811461057d57600080fd5b50565b60008135905061058f81610569565b92915050565b600080fd5b600080fd5b6000601f19601f8301169050919050565b7f4e487b7100000000000000000000000000000000000000000000000000000000600052604160045260246000fd5b6105e88261059f565b810181811067ffffffffffffffff82111715610607576106066105b0565b5b80604052505050565b600061061a6104fc565b905061062682826105df565b919050565b600067ffffffffffffffff821115610646576106456105b0565b5b61064f8261059f565b9050602081019050919050565b82818337600083830152505050565b600061067e6106798461062b565b610610565b90508281526020810184848401111561069a5761069961059a565b5b6106a584828561065c565b509392505050565b600082601f8301126106c2576106c1610595565b5b81356106d284826020860161066b565b91505092915050565b6000806000606084860312156106f4576106f3610506565b5b600061070286828701610580565b935050602061071386828701610580565b925050604084013567ffffffffffffffff8111156107345761073361050b565b5b610740868287016106ad565b9150509250925092565b600082825260208201905092915050565b7f4f6e6c79206c6963656e736f722063616e20757064617465206c6963656e736f60008201527f7200000000000000000000000000000000000000000000000000000000000000602082015250565b60006107b760218361074a565b91506107c28261075b565b604082019050919050565b600060208201905081810360008301526107e6816107aa565b9050919050565b7f496e76616c696420616464726573730000000000000000000000000000000000600082015250565b6000610823600f8361074a565b915061082e826107ed565b602082019050919050565b6000602082019050818103600083015261085281610816565b9050919050565b7f4c6963656e736f722063616e6e6f742070617920697473656c66000000000000600082015250565b600061088f601a8361074a565b915061089a82610859565b602082019050919050565b600060208201905081810360008301526108be81610882565b9050919050565b600081519050919050565b60005b838110156108ee5780820151818401526020810190506108d3565b60008484015250505050565b6000610905826108c5565b61090f818561074a565b935061091f8185602086016108d0565b6109288161059f565b840191505092915050565b600060608201905061094860008301866104d2565b61095560208301856104d2565b818103604083015261096781846108fa565b905094935050505056fea26469706673582212205cf6accca7821d122250b66cb8c10247ac9a8ee64002c8baf82b0efe7d595d3c64736f6c63430008130033",
  "linkReferences": {},
  "deployedLinkReferences": {}
}